{
  "address": "0x4B7d3ba74629A032d8a87Fd52e226DaE30dD54b0",
  "abi": [
    {
      "inputs": [
        {
          "internalType": "address",
          "name": "_endpoint",
          "type": "address"
        },
        {
          "internalType": "address",
          "name": "_delegate",
          "type": "address"
        }
      ],
      "stateMutability": "nonpayable",
      "type": "constructor"
    },
    {
      "inputs": [
        {
          "internalType": "address",
          "name": "target",
          "type": "address"
        }
      ],
      "name": "AddressEmptyCode",
      "type": "error"
    },
    {
      "inputs": [
        {
          "internalType": "address",
          "name": "account",
          "type": "address"
        }
      ],
      "name": "AddressInsufficientBalance",
      "type": "error"
    },
    {
      "inputs": [],
      "name": "FailedInnerCall",
      "type": "error"
    },
    {
      "inputs": [],
      "name": "InvalidDelegate",
      "type": "error"
    },
    {
      "inputs": [],
      "name": "InvalidEndpointCall",
      "type": "error"
    },
    {
      "inputs": [],
      "name": "LzTokenUnavailable",
      "type": "error"
    },
    {
      "inputs": [
        {
          "internalType": "uint32",
          "name": "eid",
          "type": "uint32"
        }
      ],
      "name": "NoPeer",
      "type": "error"
    },
    {
      "inputs": [
        {
          "internalType": "uint256",
          "name": "msgValue",
          "type": "uint256"
        }
      ],
      "name": "NotEnoughNative",
      "type": "error"
    },
    {
      "inputs": [
        {
          "internalType": "address",
          "name": "addr",
          "type": "address"
        }
      ],
      "name": "OnlyEndpoint",
      "type": "error"
    },
    {
      "inputs": [
        {
          "internalType": "uint32",
          "name": "eid",
          "type": "uint32"
        },
        {
          "internalType": "bytes32",
          "name": "sender",
          "type": "bytes32"
        }
      ],
      "name": "OnlyPeer",
      "type": "error"
    },
    {
      "inputs": [
        {
          "internalType": "address",
          "name": "owner",
          "type": "address"
        }
      ],
      "name": "OwnableInvalidOwner",
      "type": "error"
    },
    {
      "inputs": [
        {
          "internalType": "address",
          "name": "account",
          "type": "address"
        }
      ],
      "name": "OwnableUnauthorizedAccount",
      "type": "error"
    },
    {
      "inputs": [
        {
          "internalType": "address",
          "name": "token",
          "type": "address"
        }
      ],
      "name": "SafeERC20FailedOperation",
      "type": "error"
    },
    {
      "anonymous": false,
      "inputs": [
        {
          "indexed": true,
          "internalType": "address",
          "name": "previousOwner",
          "type": "address"
        },
        {
          "indexed": true,
          "internalType": "address",
          "name": "newOwner",
          "type": "address"
        }
      ],
      "name": "OwnershipTransferred",
      "type": "event"
    },
    {
      "anonymous": false,
      "inputs": [
        {
          "indexed": false,
          "internalType": "uint32",
          "name": "eid",
          "type": "uint32"
        },
        {
          "indexed": false,
          "internalType": "bytes32",
          "name": "peer",
          "type": "bytes32"
        }
      ],
      "name": "PeerSet",
      "type": "event"
    },
    {
      "anonymous": false,
      "inputs": [
        {
          "indexed": false,
          "internalType": "uint256",
          "name": "topicId",
          "type": "uint256"
        }
      ],
      "name": "VoteStopped",
      "type": "event"
    },
    {
      "anonymous": false,
      "inputs": [
        {
          "indexed": false,
          "internalType": "uint256",
          "name": "topicId",
          "type": "uint256"
        },
        {
          "indexed": false,
          "internalType": "string",
          "name": "description",
          "type": "string"
        }
      ],
      "name": "VoteTopicCreated",
      "type": "event"
    },
    {
      "anonymous": false,
      "inputs": [
        {
          "indexed": false,
          "internalType": "uint256",
          "name": "topicId",
          "type": "uint256"
        },
        {
          "indexed": false,
          "internalType": "address",
          "name": "voter",
          "type": "address"
        },
        {
          "indexed": false,
          "internalType": "bool",
          "name": "vote",
          "type": "bool"
        }
      ],
      "name": "Voted",
      "type": "event"
    },
    {
      "inputs": [
        {
          "components": [
            {
              "internalType": "uint32",
              "name": "srcEid",
              "type": "uint32"
            },
            {
              "internalType": "bytes32",
              "name": "sender",
              "type": "bytes32"
            },
            {
              "internalType": "uint64",
              "name": "nonce",
              "type": "uint64"
            }
          ],
          "internalType": "struct Origin",
          "name": "origin",
          "type": "tuple"
        }
      ],
      "name": "allowInitializePath",
      "outputs": [
        {
          "internalType": "bool",
          "name": "",
          "type": "bool"
        }
      ],
      "stateMutability": "view",
      "type": "function"
    },
    {
      "inputs": [],
      "name": "composeMsgSender",
      "outputs": [
        {
          "internalType": "address",
          "name": "sender",
          "type": "address"
        }
      ],
      "stateMutability": "view",
      "type": "function"
    },
    {
      "inputs": [
        {
          "internalType": "string",
          "name": "_description",
          "type": "string"
        }
      ],
      "name": "createVoteTopic",
      "outputs": [],
      "stateMutability": "nonpayable",
      "type": "function"
    },
    {
      "inputs": [],
      "name": "endpoint",
      "outputs": [
        {
          "internalType": "contract ILayerZeroEndpointV2",
          "name": "",
          "type": "address"
        }
      ],
      "stateMutability": "view",
      "type": "function"
    },
    {
      "inputs": [
        {
          "internalType": "uint256",
          "name": "_topicId",
          "type": "uint256"
        }
      ],
      "name": "getVoteCounts",
      "outputs": [
        {
          "internalType": "uint256",
          "name": "yesVotes",
          "type": "uint256"
        },
        {
          "internalType": "uint256",
          "name": "noVotes",
          "type": "uint256"
        }
      ],
      "stateMutability": "view",
      "type": "function"
    },
    {
      "inputs": [
        {
          "internalType": "uint32",
          "name": "",
          "type": "uint32"
        }
      ],
      "name": "lastStateChangeNonce",
      "outputs": [
        {
          "internalType": "uint256",
          "name": "",
          "type": "uint256"
        }
      ],
      "stateMutability": "view",
      "type": "function"
    },
    {
      "inputs": [
        {
          "components": [
            {
              "internalType": "uint32",
              "name": "srcEid",
              "type": "uint32"
            },
            {
              "internalType": "bytes32",
              "name": "sender",
              "type": "bytes32"
            },
            {
              "internalType": "uint64",
              "name": "nonce",
              "type": "uint64"
            }
          ],
          "internalType": "struct Origin",
          "name": "_origin",
          "type": "tuple"
        },
        {
          "internalType": "bytes32",
          "name": "_guid",
          "type": "bytes32"
        },
        {
          "internalType": "bytes",
          "name": "_message",
          "type": "bytes"
        },
        {
          "internalType": "address",
          "name": "_executor",
          "type": "address"
        },
        {
          "internalType": "bytes",
          "name": "_extraData",
          "type": "bytes"
        }
      ],
      "name": "lzReceive",
      "outputs": [],
      "stateMutability": "payable",
      "type": "function"
    },
    {
      "inputs": [
        {
          "internalType": "uint32",
          "name": "",
          "type": "uint32"
        },
        {
          "internalType": "bytes32",
          "name": "",
          "type": "bytes32"
        }
      ],
      "name": "nextNonce",
      "outputs": [
        {
          "internalType": "uint64",
          "name": "nonce",
          "type": "uint64"
        }
      ],
      "stateMutability": "view",
      "type": "function"
    },
    {
      "inputs": [],
      "name": "nonce",
      "outputs": [
        {
          "internalType": "uint256",
          "name": "",
          "type": "uint256"
        }
      ],
      "stateMutability": "view",
      "type": "function"
    },
    {
      "inputs": [],
      "name": "oAppVersion",
      "outputs": [
        {
          "internalType": "uint64",
          "name": "senderVersion",
          "type": "uint64"
        },
        {
          "internalType": "uint64",
          "name": "receiverVersion",
          "type": "uint64"
        }
      ],
      "stateMutability": "pure",
      "type": "function"
    },
    {
      "inputs": [],
      "name": "owner",
      "outputs": [
        {
          "internalType": "address",
          "name": "",
          "type": "address"
        }
      ],
      "stateMutability": "view",
      "type": "function"
    },
    {
      "inputs": [
        {
          "internalType": "uint32",
          "name": "eid",
          "type": "uint32"
        }
      ],
      "name": "peers",
      "outputs": [
        {
          "internalType": "bytes32",
          "name": "peer",
          "type": "bytes32"
        }
      ],
      "stateMutability": "view",
      "type": "function"
    },
    {
      "inputs": [],
      "name": "renounceOwnership",
      "outputs": [],
      "stateMutability": "nonpayable",
      "type": "function"
    },
    {
      "inputs": [
        {
          "internalType": "address",
          "name": "_delegate",
          "type": "address"
        }
      ],
      "name": "setDelegate",
      "outputs": [],
      "stateMutability": "nonpayable",
      "type": "function"
    },
    {
      "inputs": [
        {
          "internalType": "uint32",
          "name": "_eid",
          "type": "uint32"
        },
        {
          "internalType": "bytes32",
          "name": "_peer",
          "type": "bytes32"
        }
      ],
      "name": "setPeer",
      "outputs": [],
      "stateMutability": "nonpayable",
      "type": "function"
    },
    {
      "inputs": [
        {
          "internalType": "uint256",
          "name": "_topicId",
          "type": "uint256"
        }
      ],
      "name": "stopVote",
      "outputs": [],
      "stateMutability": "nonpayable",
      "type": "function"
    },
    {
      "inputs": [],
      "name": "topicsCount",
      "outputs": [
        {
          "internalType": "uint256",
          "name": "",
          "type": "uint256"
        }
      ],
      "stateMutability": "view",
      "type": "function"
    },
    {
      "inputs": [
        {
          "internalType": "address",
          "name": "newOwner",
          "type": "address"
        }
      ],
      "name": "transferOwnership",
      "outputs": [],
      "stateMutability": "nonpayable",
      "type": "function"
    },
    {
      "inputs": [
        {
          "internalType": "uint256",
          "name": "_topicId",
          "type": "uint256"
        },
        {
          "internalType": "bool",
          "name": "_vote",
          "type": "bool"
        }
      ],
      "name": "vote",
      "outputs": [],
      "stateMutability": "nonpayable",
      "type": "function"
    },
    {
      "inputs": [
        {
          "internalType": "uint256",
          "name": "",
          "type": "uint256"
        }
      ],
      "name": "voteTopics",
      "outputs": [
        {
          "internalType": "string",
          "name": "description",
          "type": "string"
        },
        {
          "internalType": "bool",
          "name": "isActive",
          "type": "bool"
        },
        {
          "internalType": "uint256",
          "name": "yesVotes",
          "type": "uint256"
        },
        {
          "internalType": "uint256",
          "name": "noVotes",
          "type": "uint256"
        }
      ],
      "stateMutability": "view",
      "type": "function"
    }
  ],
  "transactionHash": "0x1a2086994b392daa832190000966d52827da49981a65a8cf494926c99a68191d",
  "args": [
    "0x6EDCE65403992e310A62460808c4b910D972f10f",
    "0xC1c80f0a734d58aBBa71900c1582FF686836413B"
  ],
  "numDeployments": 2,
  "solcInputHash": "427ca3067f683f5c7630541c29c4d6de",
  "bytecode": "0x60a060405260006005553480156200001657600080fd5b5060405162001d5e38038062001d5e833981016040819052620000399162000181565b81818181806001600160a01b0381166200006d57604051631e4fbdf760e01b81526000600482015260240160405180910390fd5b620000788162000114565b506001600160a01b038083166080528116620000a757604051632d618d8160e21b815260040160405180910390fd5b60805160405163ca5eb5e160e01b81526001600160a01b0383811660048301529091169063ca5eb5e190602401600060405180830381600087803b158015620000ef57600080fd5b505af115801562000104573d6000803e3d6000fd5b50505050505050505050620001b9565b600080546001600160a01b038381166001600160a01b0319831681178455604051919092169283917f8be0079c531659141344cd1fd0a4f28419497f9722a3daafe3b4186f6b6457e09190a35050565b80516001600160a01b03811681146200017c57600080fd5b919050565b600080604083850312156200019557600080fd5b620001a08362000164565b9150620001b06020840162000164565b90509250929050565b608051611b66620001f8600039600081816101d1015281816104150152818161094801528181610e8801528181610f8c01526110430152611b666000f3fe60806040526004361061011f5760003560e01c80638da5cb5b116100a0578063c9d27afe11610064578063c9d27afe14610353578063ca5eb5e114610373578063f06c4bbb14610393578063f2fde38b146103c3578063ff7bd03d146103e357600080fd5b80638da5cb5b146102c95780639f0103a6146102e7578063affed0e0146102fd578063b92d0eff14610313578063bb0b6a531461032657600080fd5b80635e280f11116100e75780635e280f11146101bf578063715018a61461020b578063799bb48f146102205780637d25a05e1461025b5780638a241f4c1461029457600080fd5b806313137d651461012457806317442b70146101395780633400288b1461015f57806337d047441461017f57806343ab92b71461019f575b600080fd5b610137610132366004611309565b610413565b005b34801561014557600080fd5b506040805160018082526020820152015b60405180910390f35b34801561016b57600080fd5b5061013761017a3660046113c2565b6104d3565b34801561018b57600080fd5b5061013761019a3660046114c2565b610530565b3480156101ab57600080fd5b506101376101ba366004611513565b6105f9565b3480156101cb57600080fd5b506101f37f000000000000000000000000000000000000000000000000000000000000000081565b6040516001600160a01b039091168152602001610156565b34801561021757600080fd5b506101376106f9565b34801561022c57600080fd5b5061024d61023b36600461152c565b60046020526000908152604090205481565b604051908152602001610156565b34801561026757600080fd5b5061027b6102763660046113c2565b61070d565b60405167ffffffffffffffff9091168152602001610156565b3480156102a057600080fd5b506102b46102af366004611513565b610716565b60408051928352602083019190915201610156565b3480156102d557600080fd5b506000546001600160a01b03166101f3565b3480156102f357600080fd5b5061024d60035481565b34801561030957600080fd5b5061024d60055481565b34801561031f57600080fd5b50306101f3565b34801561033257600080fd5b5061024d61034136600461152c565b60016020526000908152604090205481565b34801561035f57600080fd5b5061013761036e366004611555565b610759565b34801561037f57600080fd5b5061013761038e366004611585565b610921565b34801561039f57600080fd5b506103b36103ae366004611513565b6109a7565b60405161015694939291906115f2565b3480156103cf57600080fd5b506101376103de366004611585565b610a5d565b3480156103ef57600080fd5b506104036103fe366004611621565b610a98565b6040519015158152602001610156565b7f00000000000000000000000000000000000000000000000000000000000000006001600160a01b03163314610463576040516391ac5e4f60e01b81523360048201526024015b60405180910390fd5b6020870180359061047d90610478908a61152c565b610ace565b146104bb5761048f602088018861152c565b60405163309afaf360e21b815263ffffffff90911660048201526020880135602482015260440161045a565b6104ca87878787878787610b0a565b50505050505050565b6104db610c50565b63ffffffff8216600081815260016020908152604091829020849055815192835282018390527f238399d427b947898edb290f5ff0f9109849b1c3ba196a42e35f00c50a54b98b910160405180910390a15050565b610538610c50565b60035460009081526002602052604090208061055483826116c1565b506001818101805460ff191690911790556003546040517fbecde09f8180801fca0d167495c9fc308f6bb4ecfc0467bb355cf5e7a18472b691610598918590611781565b60405180910390a1600380549060006105b0836117b0565b91905055506105f560016003546105c791906117c9565b8360016000806040516020016105e19594939291906117dc565b604051602081830303815290604052610c7d565b5050565b610601610c50565b60035481106106225760405162461bcd60e51b815260040161045a90611812565b60008181526002602052604090206001015460ff166106835760405162461bcd60e51b815260206004820152601960248201527f566f74696e6720697320616c72656164792073746f7070656400000000000000604482015260640161045a565b60008181526002602052604090819020600101805460ff19169055517f9629c08265e29e042a1bec87bd4f79e271c91da7a6adabd79a9ce2496bfcb3f0906106ce9083815260200190565b60405180910390a160408051602081018390526000918101919091526106f6906060016105e1565b50565b610701610c50565b61070b6000610d4c565b565b60005b92915050565b600080600354831061073a5760405162461bcd60e51b815260040161045a90611812565b5050600090815260026020526040902060038101546004909101549091565b600354821061077a5760405162461bcd60e51b815260040161045a90611812565b60008281526002602052604090206001015460ff166107d25760405162461bcd60e51b8152602060048201526014602482015273566f74696e67206973206e6f742061637469766560601b604482015260640161045a565b6000828152600260208181526040808420338552909201905290205460ff161561082e5760405162461bcd60e51b815260206004820152600d60248201526c105b1c9958591e481d9bdd1959609a1b604482015260640161045a565b600082815260026020818152604080842033855290920190529020805460ff191660011790558015610881576000828152600260205260408120600301805491610877836117b0565b91905055506108a4565b600082815260026020526040812060040180549161089e836117b0565b91905055505b604080518381523360208201528215158183015290517ff2913dbe661ee2acc4a046d8fbcdc792373bda34c41c6086484b5345e5785e5f9181900360600190a1600082815260026020908152604091829020600381015460049091015483519283018690529282015260608101919091526105f5906080016105e1565b610929610c50565b60405163ca5eb5e160e01b81526001600160a01b0382811660048301527f0000000000000000000000000000000000000000000000000000000000000000169063ca5eb5e190602401600060405180830381600087803b15801561098c57600080fd5b505af11580156109a0573d6000803e3d6000fd5b5050505050565b6002602052600090815260409020805481906109c29061163d565b80601f01602080910402602001604051908101604052809291908181526020018280546109ee9061163d565b8015610a3b5780601f10610a1057610100808354040283529160200191610a3b565b820191906000526020600020905b815481529060010190602001808311610a1e57829003601f168201915b5050505060018301546003840154600490940154929360ff9091169290915084565b610a65610c50565b6001600160a01b038116610a8f57604051631e4fbdf760e01b81526000600482015260240161045a565b6106f681610d4c565b6000602082018035906001908390610ab0908661152c565b63ffffffff1681526020810191909152604001600020541492915050565b63ffffffff8116600090815260016020526040812054806107105760405163f6ff4fb760e01b815263ffffffff8416600482015260240161045a565b600080610b198688018861183c565b9150915060046000610b284690565b63ffffffff1663ffffffff168152602001908152602001600020548211610b505750506104ca565b600080600080600085806020019051810190610b6c9190611897565b945094509450945094506003548510610bcb5760038054600091600291839182610b95836117b0565b9091555081526020810191909152604001600020905080610bb686826116c1565b50600101805460ff1916841515179055610c28565b600085815260026020526040908190209051610be890829061193f565b6040518091039020858051906020012014610c0a5780610c0886826116c1565b505b60018101805460ff1916851515179055600381018390556004018190555b50505063ffffffff461660009081526004602052604090209390935550505050505050505050565b6000546001600160a01b0316331461070b5760405163118cdaa760e01b815233600482015260240161045a565b60058054906000610c8d836117b0565b9190505550600060055482604051602001610ca9929190611781565b60405160208183030381529060405290506000610cc4610d9c565b905060005b8151811015610d46576000828281518110610ce657610ce66119b5565b60200260200101519050610cf74690565b63ffffffff168163ffffffff1614610d3d57610d3b818560405180602001604052806000815250604051806040016040528060008152602001600081525030610e55565b505b50600101610cc9565b50505050565b600080546001600160a01b038381166001600160a01b0319831681178455604051919092169283917f8be0079c531659141344cd1fd0a4f28419497f9722a3daafe3b4186f6b6457e09190a35050565b604080516003808252608082019092526060916000919060208201848036833701905050905062aa36a781600081518110610dd957610dd96119b5565b602002602001019063ffffffff16908163ffffffff168152505062aa37dc81600181518110610e0a57610e0a6119b5565b602002602001019063ffffffff16908163ffffffff168152505062066eee81600281518110610e3b57610e3b6119b5565b63ffffffff90921660209283029190910190910152919050565b610e5d61124b565b6000610e6c8460000151610f60565b602085015190915015610e8657610e868460200151610f88565b7f00000000000000000000000000000000000000000000000000000000000000006001600160a01b0316632637a450826040518060a001604052808b63ffffffff168152602001610ed68c610ace565b81526020018a815260200189815260200160008960200151111515815250866040518463ffffffff1660e01b8152600401610f129291906119cb565b60806040518083038185885af1158015610f30573d6000803e3d6000fd5b50505050506040513d601f19601f82011682018060405250810190610f559190611a44565b979650505050505050565b6000813414610f84576040516304fb820960e51b815234600482015260240161045a565b5090565b60007f00000000000000000000000000000000000000000000000000000000000000006001600160a01b031663e4fe1d946040518163ffffffff1660e01b8152600401602060405180830381865afa158015610fe8573d6000803e3d6000fd5b505050506040513d601f19601f8201168201806040525081019061100c9190611ada565b90506001600160a01b038116611035576040516329b99a9560e11b815260040160405180910390fd5b6040805133602482018190527f00000000000000000000000000000000000000000000000000000000000000006001600160a01b03818116604485015260648085018890528551808603909101815260849094019094526020830180516001600160e01b03166323b872dd60e01b1790526105f5938516928690610d4690859060006110c18383611114565b905080516000141580156110e65750808060200190518101906110e49190611af7565b155b1561110f57604051635274afe760e01b81526001600160a01b038416600482015260240161045a565b505050565b606061112283836000611129565b9392505050565b60608147101561114e5760405163cd78605960e01b815230600482015260240161045a565b600080856001600160a01b0316848660405161116a9190611b14565b60006040518083038185875af1925050503d80600081146111a7576040519150601f19603f3d011682016040523d82523d6000602084013e6111ac565b606091505b50915091506111bc8683836111c6565b9695505050505050565b6060826111db576111d682611222565b611122565b81511580156111f257506001600160a01b0384163b155b1561121b57604051639996b31560e01b81526001600160a01b038516600482015260240161045a565b5080611122565b8051156112325780518082602001fd5b604051630a12f52160e11b815260040160405180910390fd5b604051806060016040528060008019168152602001600067ffffffffffffffff16815260200161128e604051806040016040528060008152602001600081525090565b905290565b6000606082840312156112a557600080fd5b50919050565b60008083601f8401126112bd57600080fd5b50813567ffffffffffffffff8111156112d557600080fd5b6020830191508360208285010111156112ed57600080fd5b9250929050565b6001600160a01b03811681146106f657600080fd5b600080600080600080600060e0888a03121561132457600080fd5b61132e8989611293565b965060608801359550608088013567ffffffffffffffff8082111561135257600080fd5b61135e8b838c016112ab565b909750955060a08a01359150611373826112f4565b90935060c0890135908082111561138957600080fd5b506113968a828b016112ab565b989b979a50959850939692959293505050565b803563ffffffff811681146113bd57600080fd5b919050565b600080604083850312156113d557600080fd5b6113de836113a9565b946020939093013593505050565b634e487b7160e01b600052604160045260246000fd5b6040805190810167ffffffffffffffff81118282101715611425576114256113ec565b60405290565b604051601f8201601f1916810167ffffffffffffffff81118282101715611454576114546113ec565b604052919050565b600067ffffffffffffffff821115611476576114766113ec565b50601f01601f191660200190565b60006114976114928461145c565b61142b565b90508281528383830111156114ab57600080fd5b828260208301376000602084830101529392505050565b6000602082840312156114d457600080fd5b813567ffffffffffffffff8111156114eb57600080fd5b8201601f810184136114fc57600080fd5b61150b84823560208401611484565b949350505050565b60006020828403121561152557600080fd5b5035919050565b60006020828403121561153e57600080fd5b611122826113a9565b80151581146106f657600080fd5b6000806040838503121561156857600080fd5b82359150602083013561157a81611547565b809150509250929050565b60006020828403121561159757600080fd5b8135611122816112f4565b60005b838110156115bd5781810151838201526020016115a5565b50506000910152565b600081518084526115de8160208601602086016115a2565b601f01601f19169290920160200192915050565b60808152600061160560808301876115c6565b9415156020830152506040810192909252606090910152919050565b60006060828403121561163357600080fd5b6111228383611293565b600181811c9082168061165157607f821691505b6020821081036112a557634e487b7160e01b600052602260045260246000fd5b601f82111561110f576000816000526020600020601f850160051c8101602086101561169a5750805b601f850160051c820191505b818110156116b9578281556001016116a6565b505050505050565b815167ffffffffffffffff8111156116db576116db6113ec565b6116ef816116e9845461163d565b84611671565b602080601f831160018114611724576000841561170c5750858301515b600019600386901b1c1916600185901b1785556116b9565b600085815260208120601f198616915b8281101561175357888601518255948401946001909101908401611734565b50858210156117715787850151600019600388901b60f8161c191681555b5050505050600190811b01905550565b82815260406020820152600061150b60408301846115c6565b634e487b7160e01b600052601160045260246000fd5b6000600182016117c2576117c261179a565b5060010190565b818103818111156107105761071061179a565b85815260a0602082015260006117f560a08301876115c6565b941515604083015250606081019290925260809091015292915050565b60208082526010908201526f125b9d985b1a59081d1bdc1a58c8125160821b604082015260600190565b6000806040838503121561184f57600080fd5b82359150602083013567ffffffffffffffff81111561186d57600080fd5b8301601f8101851361187e57600080fd5b61188d85823560208401611484565b9150509250929050565b600080600080600060a086880312156118af57600080fd5b85519450602086015167ffffffffffffffff8111156118cd57600080fd5b8601601f810188136118de57600080fd5b80516118ec6114928261145c565b81815289602083850101111561190157600080fd5b6119128260208301602086016115a2565b809650505050604086015161192681611547565b6060870151608090970151959894975095949392505050565b600080835461194d8161163d565b60018281168015611965576001811461197a576119a9565b60ff19841687528215158302870194506119a9565b8760005260208060002060005b858110156119a05781548a820152908401908201611987565b50505082870194505b50929695505050505050565b634e487b7160e01b600052603260045260246000fd5b6040815263ffffffff8351166040820152602083015160608201526000604084015160a06080840152611a0160e08401826115c6565b90506060850151603f198483030160a0850152611a1e82826115c6565b60809690960151151560c08501525050506001600160a01b039190911660209091015290565b60008183036080811215611a5757600080fd5b6040516060810167ffffffffffffffff8282108183111715611a7b57611a7b6113ec565b8160405285518352602086015191508082168214611a9857600080fd5b5060208201526040603f1983011215611ab057600080fd5b611ab8611402565b6040858101518252606090950151602082015293810193909352509092915050565b600060208284031215611aec57600080fd5b8151611122816112f4565b600060208284031215611b0957600080fd5b815161112281611547565b60008251611b268184602087016115a2565b919091019291505056fea2646970667358221220442244cabe87def65c527667f12fbccf5168b45b2ebedf43829dfd85a97da40664736f6c63430008160033",
  "devdoc": {
    "errors": {
      "AddressEmptyCode(address)": [
        {
          "details": "There's no code at `target` (it is not a contract)."
        }
      ],
      "AddressInsufficientBalance(address)": [
        {
          "details": "The ETH balance of the account is not enough to perform the operation."
        }
      ],
      "FailedInnerCall()": [
        {
          "details": "A call to an address target failed. The target may have reverted."
        }
      ],
      "OwnableInvalidOwner(address)": [
        {
          "details": "The owner is not a valid owner account. (eg. `address(0)`)"
        }
      ],
      "OwnableUnauthorizedAccount(address)": [
        {
          "details": "The caller account is not authorized to perform an operation."
        }
      ],
      "SafeERC20FailedOperation(address)": [
        {
          "details": "An operation with an ERC20 token failed."
        }
      ]
    },
    "kind": "dev",
    "methods": {
      "allowInitializePath((uint32,bytes32,uint64))": {
        "details": "This indicates to the endpoint that the OApp has enabled msgs for this particular path to be received.This defaults to assuming if a peer has been set, its initialized. Can be overridden by the OApp if there is other logic to determine this.",
        "params": {
          "origin": "The origin information containing the source endpoint and sender address."
        },
        "returns": {
          "_0": "Whether the path has been initialized."
        }
      },
      "composeMsgSender()": {
        "details": "Applications can optionally choose to implement a separate composeMsg sender that is NOT the bridging layer.The default sender IS the OApp implementer.",
        "returns": {
          "sender": "The address responsible for 'sending' composeMsg's to the Endpoint."
        }
      },
      "lzReceive((uint32,bytes32,uint64),bytes32,bytes,address,bytes)": {
        "details": "Entry point for receiving messages or packets from the endpoint.Entry point for receiving msg/packet from the LayerZero endpoint.",
        "params": {
          "_executor": "The address of the executor for the received message.",
          "_extraData": "Additional arbitrary data provided by the corresponding executor.",
          "_guid": "The unique identifier for the received LayerZero message.",
          "_message": "The payload of the received message.",
          "_origin": "The origin information containing the source endpoint and sender address.  - srcEid: The source chain endpoint ID.  - sender: The sender address on the src chain.  - nonce: The nonce of the message."
        }
      },
      "nextNonce(uint32,bytes32)": {
        "details": "_srcEid The source endpoint ID._sender The sender address.The path nonce starts from 1. If 0 is returned it means that there is NO nonce ordered enforcement.Is required by the off-chain executor to determine the OApp expects msg execution is ordered.This is also enforced by the OApp.By default this is NOT enabled. ie. nextNonce is hardcoded to return 0.",
        "returns": {
          "nonce": "The next nonce."
        }
      },
      "oAppVersion()": {
        "returns": {
          "receiverVersion": "The version of the OAppReceiver.sol implementation.",
          "senderVersion": "The version of the OAppSender.sol implementation."
        }
      },
      "owner()": {
        "details": "Returns the address of the current owner."
      },
      "renounceOwnership()": {
        "details": "Leaves the contract without owner. It will not be possible to call `onlyOwner` functions. Can only be called by the current owner. NOTE: Renouncing ownership will leave the contract without an owner, thereby disabling any functionality that is only available to the owner."
      },
      "setDelegate(address)": {
        "details": "Only the owner/admin of the OApp can call this function.Provides the ability for a delegate to set configs, on behalf of the OApp, directly on the Endpoint contract.",
        "params": {
          "_delegate": "The address of the delegate to be set."
        }
      },
      "setPeer(uint32,bytes32)": {
        "details": "Only the owner/admin of the OApp can call this function.Indicates that the peer is trusted to send LayerZero messages to this OApp.Set this to bytes32(0) to remove the peer address.Peer is a bytes32 to accommodate non-evm chains.",
        "params": {
          "_eid": "The endpoint ID.",
          "_peer": "The address of the peer to be associated with the corresponding endpoint."
        }
      },
      "transferOwnership(address)": {
        "details": "Transfers ownership of the contract to a new account (`newOwner`). Can only be called by the current owner."
      }
    },
    "version": 1
  },
  "userdoc": {
    "kind": "user",
    "methods": {
      "allowInitializePath((uint32,bytes32,uint64))": {
        "notice": "Checks if the path initialization is allowed based on the provided origin."
      },
      "composeMsgSender()": {
        "notice": "Retrieves the address responsible for 'sending' composeMsg's to the Endpoint."
      },
      "endpoint()": {
        "notice": "Retrieves the LayerZero endpoint associated with the OApp."
      },
      "nextNonce(uint32,bytes32)": {
        "notice": "Retrieves the next nonce for a given source endpoint and sender address."
      },
      "oAppVersion()": {
        "notice": "Retrieves the OApp version information."
      },
      "peers(uint32)": {
        "notice": "Retrieves the peer (OApp) associated with a corresponding endpoint."
      },
      "setDelegate(address)": {
        "notice": "Sets the delegate address for the OApp."
      },
      "setPeer(uint32,bytes32)": {
        "notice": "Sets the peer address (OApp instance) for a corresponding endpoint."
      }
    },
    "version": 1
  },
  "storageLayout": {
    "storage": [
      {
        "astId": 1297,
        "contract": "contracts/MyOAppVoting.sol:MyOAppVoting",
        "label": "_owner",
        "offset": 0,
        "slot": "0",
        "type": "t_address"
      },
      {
        "astId": 64,
        "contract": "contracts/MyOAppVoting.sol:MyOAppVoting",
        "label": "peers",
        "offset": 0,
        "slot": "1",
        "type": "t_mapping(t_uint32,t_bytes32)"
      },
      {
        "astId": 2153,
        "contract": "contracts/MyOAppVoting.sol:MyOAppVoting",
        "label": "voteTopics",
        "offset": 0,
        "slot": "2",
        "type": "t_mapping(t_uint256,t_struct(VoteTopic)2148_storage)"
      },
      {
        "astId": 2155,
        "contract": "contracts/MyOAppVoting.sol:MyOAppVoting",
        "label": "topicsCount",
        "offset": 0,
        "slot": "3",
        "type": "t_uint256"
      },
      {
        "astId": 2159,
        "contract": "contracts/MyOAppVoting.sol:MyOAppVoting",
        "label": "lastStateChangeNonce",
        "offset": 0,
        "slot": "4",
        "type": "t_mapping(t_uint32,t_uint256)"
      },
      {
        "astId": 2162,
        "contract": "contracts/MyOAppVoting.sol:MyOAppVoting",
        "label": "nonce",
        "offset": 0,
        "slot": "5",
        "type": "t_uint256"
      }
    ],
    "types": {
      "t_address": {
        "encoding": "inplace",
        "label": "address",
        "numberOfBytes": "20"
      },
      "t_bool": {
        "encoding": "inplace",
        "label": "bool",
        "numberOfBytes": "1"
      },
      "t_bytes32": {
        "encoding": "inplace",
        "label": "bytes32",
        "numberOfBytes": "32"
      },
      "t_mapping(t_address,t_bool)": {
        "encoding": "mapping",
        "key": "t_address",
        "label": "mapping(address => bool)",
        "numberOfBytes": "32",
        "value": "t_bool"
      },
      "t_mapping(t_uint256,t_struct(VoteTopic)2148_storage)": {
        "encoding": "mapping",
        "key": "t_uint256",
        "label": "mapping(uint256 => struct MyOAppVoting.VoteTopic)",
        "numberOfBytes": "32",
        "value": "t_struct(VoteTopic)2148_storage"
      },
      "t_mapping(t_uint32,t_bytes32)": {
        "encoding": "mapping",
        "key": "t_uint32",
        "label": "mapping(uint32 => bytes32)",
        "numberOfBytes": "32",
        "value": "t_bytes32"
      },
      "t_mapping(t_uint32,t_uint256)": {
        "encoding": "mapping",
        "key": "t_uint32",
        "label": "mapping(uint32 => uint256)",
        "numberOfBytes": "32",
        "value": "t_uint256"
      },
      "t_string_storage": {
        "encoding": "bytes",
        "label": "string",
        "numberOfBytes": "32"
      },
      "t_struct(VoteTopic)2148_storage": {
        "encoding": "inplace",
        "label": "struct MyOAppVoting.VoteTopic",
        "members": [
          {
            "astId": 2137,
            "contract": "contracts/MyOAppVoting.sol:MyOAppVoting",
            "label": "description",
            "offset": 0,
            "slot": "0",
            "type": "t_string_storage"
          },
          {
            "astId": 2139,
            "contract": "contracts/MyOAppVoting.sol:MyOAppVoting",
            "label": "isActive",
            "offset": 0,
            "slot": "1",
            "type": "t_bool"
          },
          {
            "astId": 2143,
            "contract": "contracts/MyOAppVoting.sol:MyOAppVoting",
            "label": "hasVoted",
            "offset": 0,
            "slot": "2",
            "type": "t_mapping(t_address,t_bool)"
          },
          {
            "astId": 2145,
            "contract": "contracts/MyOAppVoting.sol:MyOAppVoting",
            "label": "yesVotes",
            "offset": 0,
            "slot": "3",
            "type": "t_uint256"
          },
          {
            "astId": 2147,
            "contract": "contracts/MyOAppVoting.sol:MyOAppVoting",
            "label": "noVotes",
            "offset": 0,
            "slot": "4",
            "type": "t_uint256"
          }
        ],
        "numberOfBytes": "160"
      },
      "t_uint256": {
        "encoding": "inplace",
        "label": "uint256",
        "numberOfBytes": "32"
      },
      "t_uint32": {
        "encoding": "inplace",
        "label": "uint32",
        "numberOfBytes": "4"
      }
    }
  }
}